:1000000014C02CC02BC02AC029C04EC027C026C097
:1000100025C024C023C022C021C020C01FC01EC0D4
:100020001DC01CC01BC01AC019C011241FBECFEDBB
:10003000CDBF10E0A0E6B0E0EAEDF1E002C005902F
:100040000D92A037B107D9F710E0A0E7B0E001C0EA
:100050001D92A437B107E1F73ED0BDC0D1CF8FEFDD
:1000600087BB8FE081BB089585E08EBD89B780682E
:1000700089BF80E39CEF9DBD8CBD7894089520E6F8
:1000800030E0280F311DF901808182BBE5E6F0E008
:10009000E60FF11D808188BB08958091640082BBCA
:1000A00080916F0088BB08951F920F920FB60F9238
:1000B00011248F939F9380E39CEF9DBD8CBD809115
:1000C00070008F5F809370009F918F910F900FBE93
:1000D0000F901F901895C3DFC7DF8091700090913B
:1000E0007100981711F080937100809171008C332A
:1000F00049F4809172008F5F8093720010927100BA
:1001000010927000809172008C3339F480917300EA
:100110008F5F80937300109272008091730088311A
:1001200031F41092710010927200109273000ED090
:10013000D4CF8A3018F06AE042D0892F08958A30EF
:1001400018F06AE03CD0089580E008950F931F9363
:10015000CF93DF93CFE3D0E080917200EADF682F86
:1001600083E090E070E0FE0109950DE410E0F801F5
:10017000099580917200E3DF682F82E090E070E0E3
:10018000FE010995F801099580917300D2DF682F6F
:1001900081E090E070E0FE010995F80109958091F9
:1001A0007300CDDF682F80E090E070E0FE010995DC
:1001B000F8010995DF91CF911F910F910895991B37
:1001C00079E004C0991F961708F0961B881F7A954E
:0A01D000C9F780950895F894FFCF59
:1001DA000102040800407924301912027800107FC5
:00000001FF
